:100000000C942A000C9434000C9434000C943400AA
:100010000C9434000C9434000C9434000C94340090
:100020000C9434000C9434000C9434000C94340080
:100030000C9434000C9434000C9434000C94340070
:100040000C9434000C9434000C9434000C94340060
:100050000C94340011241FBECFE5D8E0DEBFCDBF25
:100060000E9446000C9436020C94000080E487B98C
:1000700086E886B9089597B1907E8770982B97B9D6
:10008000369A3699FECF84B195B1089500D000D04C
:10009000CDB7DEB70E943600B89ABA9ABC9A8E9A4B
:1000A0008A98929A80E00E943B00BC0180E090E038
:1000B0000E94170120E030E040EA50E40E94C901AC
:1000C00020E030EC4FE754E40E94A50020E030E04F
:1000D00048EC52E40E94C90169837A838B839C8334
:1000E00088B38A7E88BB969820E030E040EF51E4E8
:1000F00069817A818B819C810E94A00087FF0BC05F
:10010000C09A2FEF83EC99E0215080409040E1F7B6
:1001100000C00000C7CF20E030E040E252E4698137
:100120007A818B819C810E94A00087FF02C0C29AC5
:10013000E8CFC49A829902C09698E3CF969AE1CF0D
:100140000E94540108F481E008950E94B9000C94C3
:100150008F010E94880158F00E94810140F029F42B
:100160005F3F29F00C94780151110C94C3010C9459
:100170007E010E94A00168F39923B1F3552391F306
:10018000951B550BBB27AA2762177307840738F006
:100190009F5F5F4F220F331F441FAA1FA9F335D063
:1001A0000E2E3AF0E0E832D091505040E695001C17
:1001B000CAF72BD0FE2F29D0660F771F881FBB1FD1
:1001C000261737074807AB07B0E809F0BB0B802DAF
:1001D000BF01FF2793585F4F3AF09E3F510578F0DB
:1001E0000C9478010C94C3015F3FE4F3983ED4F380
:1001F000869577956795B795F7959F5FC9F7880FAF
:10020000911D9695879597F90895E1E0660F771F00
:10021000881FBB1F621773078407BA0720F0621B91
:10022000730B840BBA0BEE1F88F7E0950895E894E2
:1002300009C097FB3EF490958095709561957F4F2E
:100240008F4F9F4F9923A9F0F92F96E9BB279395DC
:10025000F695879577956795B795F111F8CFFAF4EC
:10026000BB0F11F460FF1BC06F5F7F4F8F4F9F4F1D
:1002700016C0882311F096E911C0772321F09EE87B
:10028000872F762F05C0662371F096E8862F70E0E1
:1002900060E02AF09A95660F771F881FDAF7880FBB
:1002A0009695879597F90895990F0008550FAA0B11
:1002B000E0E8FEEF16161706E807F907C0F0121679
:1002C0001306E407F50798F0621B730B840B950B7C
:1002D00039F40A2661F0232B242B252B21F40895D1
:1002E0000A2609F4A140A6958FEF811D811D08956E
:1002F00097F99F6780E870E060E008959FEF80ECD9
:10030000089500240A94161617061806090608957B
:1003100000240A9412161306140605060895092EE1
:100320000394000C11F4882352F0BB0F40F4BF2B50
:1003300011F460FF04C06F5F7F4F8F4F9F4F089590
:1003400057FD9058440F551F59F05F3F71F0479586
:10035000880F97FB991F61F09F3F79F0879508956B
:10036000121613061406551FF2CF4695F1DF08C08A
:10037000161617061806991FF1CF869571056105A7
:1003800008940895E894BB2766277727CB0197F94F
:1003900008950E94DC010C948F010E94810138F0C5
:1003A0000E94880120F0952311F00C9478010C94A0
:1003B0007E0111240C94C3010E94A00170F3959F4B
:1003C000C1F3950F50E0551F629FF001729FBB274C
:1003D000F00DB11D639FAA27F00DB11DAA1F649FE8
:1003E0006627B00DA11D661F829F2227B00DA11D9B
:1003F000621F739FB00DA11D621F839FA00D611D21
:10040000221F749F3327A00D611D231F849F600D41
:10041000211D822F762F6A2F11249F5750409AF06A
:10042000F1F088234AF0EE0FFF1FBB1F661F771FF6
:10043000881F91505040A9F79E3F510580F00C94C1
:1004400078010C94C3015F3FE4F3983ED4F38695A2
:1004500077956795B795F795E7959F5FC1F7FE2B61
:10046000880F911D9695879597F90895F894FFCF79
:00000001FF
